:108000000000012051FA000005D3000005D3000054
:1080100005D3000005D3000005D3000000000000D8
:1080200000000000000000000000000005D3000078
:1080300005D300000000000005D30000958B000070
:1080400005D3000005D3000005D3000005D30000D0
:1080500005D3000005D3000005D3000005D30000C0
:1080600005D3000005D3000005D3000005D30000B0
:1080700005D3000005D3000005D3000005D30000A0
:1080800005D3000005D3000005D3000005D3000090
:1080900005D3000005D3000005D3000005D3000080
:1080A00005D3000005D3000005D3000005D3000070
:1080B00005D3000005D3000005D3000005D3000060
:1080C00005D3000005D3000005D3000005D3000050
:1080D00005D3000005D3000005D3000005D3000040
:1080E00005D3000005D3000005D3000005D3000030
:1080F00005D300003D9E000005D3000005D300001D
:1081000005D3000011A3000005D3000005D3000033
:1081100005D30000199C000005D3000005D3000022
:1081200005D3000005D3000005D3000005D30000EF
:1081300005D3000005D3000005D30000ADBE00004C
:1081400035B5000005D3000005D3000005D30000BD
:1081500005D3000005D3000005D3000005D30000BF
:1081600005D3000099E5000005D3000005D3000009
:1081700005D3000005D3000005D3000005D300009F
:1081800005D3000005D3000005D3000005D300008F
:1081900005D3000005D3000005D3000005D300007F
:1081A000C9B4000005D3000005D3000005D30000CA
:0C81B00005D3000005D3000005D300003B
:10840000FFFFFFFFFFFFFFFFFFFFFFFF7EF9FFFF03
:1084400010B5054C237833B9044B13B10448AFF38E
:1084500000800123237010BD0010FF1F00000000EA
:108460006802010008B5034B1BB103490348AFF391
:10847000008008BD000000000410FF1F680201001A
:1084800010B503F083F8064B00221A70054B1B68E9
:108490009847054B9B69BDE810405B69184700BFD2
:1084A000C409FF1F3800FF1F14FE0000431E2DE902
:1084B000F0471546072B00F24D82DFE813F0080065
:1084C0000E000E0050006A00BB00FA00B301FFF777
:1084D000D7FF47F6A8532B603FE0A34BA34C0228DD
:1084E0000ABFA14699461C46A14BDF68A9F10409C1
:1084F000043C4FF0FF364FF000084FF0010A3B6894
:1085000059F8040F1B6998473B6854F8040FDB685F
:1085100098473B6820685B6998473B68D9F800003A
:108520001B6A984718B90AFA08F326EA03063B685B
:1085300020689B6998473B68D9F800001B6A9847F8
:1085400018B10AFA08F326EA030608F10108B8F19F
:10855000110FD4D1C6F310062E60002021E029604F
:1085600003291DD8DFE801F0020A0E12804BDB69F7
:108570001B681A88322353431B14ACE77C4BDB691E
:108580005B68F6E77A4BDB699B68F2E7794B1B691E
:10859000A1E7012929601DD04EB226B102292FD0B2
:1085A0000220BDE8F087724BDD68D5E90030DB685A
:1085B00064309847D5E90030DB6884309847D5E9C6
:1085C00000305B6964309847D5E900305B698430DE
:1085D0009847C2E7664BDC68D4E90030DB68C430FA
:1085E0009847D4E90030DB68A4309847D4E90030DC
:1085F0005B69C4309847D4E900305B69A430E7E791
:108600005B4BDC68D4E90030DB6800F5A27098476A
:10861000D4E90030DB6800F5B2709847D4E9003047
:108620005B6900F5A2709847D4E900305B6900F5FA
:10863000B270CDE70129296026D04EB2CEB1022911
:10864000AED14B4BDC68D4E90030DB6800F5A2709A
:108650009847D4E90030DB6800F5B2709847D4E958
:1086600000305B6900F5A2709847D4E900309B693F
:10867000DDE73F4BDD68D5E90030DB6884309847A3
:10868000D5E900301B699DE7394BDC68D4E900303F
:10869000DB68C4309847D4E90030DB68A4309847E1
:1086A000D4E900305B69C4309847D4E900309B6955
:1086B000A4E7296000295FD001297FF471AF2C4B1A
:1086C000DC68D4E90030DB6800F2C4609847D4E984
:1086D00000309B6900F2C4609847D4E90030DB6841
:1086E00000F2E4609847D4E900309B6900F2E4604E
:1086F0009847D4E90030DB6800F204709847D4E969
:1087000000309B6900F204709847D4E90030DB68C0
:1087100000F224709847D4E900309B6900F224707D
:108720009847D4E90030DB6800F244709847D4E9F8
:1087300000309B6900F244709847D4E90030DB6850
:1087400000F264709847D4E900309B6900F26470CD
:108750009847D4E90030DB6800F284709847D4E988
:1087600000309B695BE000BFF42CFF1F282EFF1F29
:1087700014FE0000C409FF1F774BDD68D5E9003007
:10878000DB6800F2C4609847D5E900305B6900F20D
:10879000C4609847D5E90030DB6800F2E460984790
:1087A000D5E900305B6900F2E4609847D5E9003014
:1087B000DB6800F204709847D5E900305B6900F28D
:1087C00004709847D5E90030DB6800F224709847C0
:1087D000D5E900305B6900F224709847D5E9003094
:1087E000DB6800F244709847D5E900305B6900F21D
:1087F00044709847D5E90030DB6800F26470984710
:10880000D5E900305B6900F264709847D5E9003023
:10881000DB6800F284709847D5E900305B6900F2AC
:108820008470D5E6296000294AD001297FF4B8AECA
:10883000494BDC68D4E90030DB6800F2845098478B
:10884000D4E900309B6900F284509847D4E90030A5
:10885000DB6800F2A4509847D4E900309B6900F22D
:10886000A4509847D4E90030DB6800F2C450984720
:10887000D4E900309B6900F2C4509847D4E9003035
:10888000DB6800F2E4509847D4E900309B6900F2BD
:10889000E4509847D4E90030DB6800F20460984760
:1088A000D4E900309B6900F204609847D4E90030B5
:1088B000DB6800F224609847D4E900309B6946E009
:1088C000254BDD68D5E90030DB6800F2845098471D
:1088D000D5E900305B6900F284509847D5E9003053
:1088E000DB6800F2A4509847D5E900305B6900F2DC
:1088F000A4509847D5E90030DB6800F2C45098478F
:10890000D5E900305B6900F2C4509847D5E90030E2
:10891000DB6800F2E4509847D5E900305B6900F26B
:10892000E4509847D5E90030DB6800F204609847CE
:10893000D5E900305B6900F204609847D5E9003062
:10894000DB6800F224609847D5E900305B6900F2EB
:1089500024603DE6042024E614FE000038B5064CF1
:108960002368C31AB3F5FA7F054604D3034B9B690A
:108970009B699847256038BD1C10FF1F14FE00003E
:108980003A4B3B4ADB685B6803F59271116003F177
:108990004401516003F18401916003F1C401D1608D
:1089A00003F58271116103F5B271516103F5D27162
:1089B000916103F5F271D16103F50971116203F55B
:1089C0001971516203F52971916203F53971D16210
:1089D00003F54971116303F55971516303F5697129
:1089E000916303F57971D16303F224411164214A43
:1089F000191D116003F12401516003F164019160BC
:108A000003F1A401D16003F1E401116103F5A27146
:108A1000516103F5C271916103F5E271D16103F512
:108A20000171116203F51171516203F521719162B7
:108A300003F53171D16203F54171116303F5517191
:108A4000516303F56171916303F5717103F204439E
:108A50001364094BD16301221A70084B084A1A6546
:108A6000084A9A65084A5A65704700BF14FE00001C
:108A7000F42CFF1F282EFF1FC409FF1F382DFF1FD6
:108A8000AD840000818400005D89000070470220F1
:108A900070470220704770477047022070470220DD
:108AA00070470220704701207047704702207047CE
:108AB00070474369124A134910B5C3E98122124B2A
:108AC0008365124B8361C0E909131149C361C0E991
:108AD0000B13104B4364104B8364104B4363C0E98A
:108AE0000F330F4B036600230E4C83660E4B0F4A69
:108AF00042658463C0E91314C265C0E91B3310BD2D
:108B0000A78A00008F8A00008D8A0000938A0000E7
:108B10009B8A0000978A0000998A00009F8A0000C3
:108B2000AB8A0000A38A0000AD8A0000B18A000071
:108B3000704700BF0A480B4B0022012110B44FF0D0
:108B4000FF3480F884201A8083F81012C0E91F4196
:108B5000C0F88830826710BC7430FFF7AABF00BF2E
:108B6000382DFF1F2C10FF1F084A094800234FF023
:108B7000FF314FF0010C138082F810324261C0E9DE
:108B8000021C03744360FFF794BF00BF4C12FF1F29
:108B9000382DFF1F684620F007018D4601B5044AB5
:108BA000BDE801401368013313608546704700BF7C
:108BB0006C14FF1F034B4BF680325A6007221A6079
:108BC000704700BF10E000E0014B1868704700BF1D
:108BD0006C14FF1F034B19681A68521A8242FBD9A2
:108BE000704700BF6C14FF1F034B1B68181A18BF97
:108BF00000F1FF30704700BF6C14FF1F0E4B41F2B5
:108C000044015A5842F080525A5041F238015A58A1
:108C100042F4F0525A5041F20402995821F0E00116
:108C20009950995841F0C001995003F580434FF491
:108C3000A062DA60704700BF007004400369FBB1B6
:108C4000427D013A082A33D8DFE802F00A202326C1
:108C5000292C2F051B0041684A6922EA03034B6156
:108C60004FF48073C27D012A027E08BF43F02003C7
:108C7000012A1FD0022A20D00268017D42F821304B
:108C80007047426851690B435361E9E74FF4007341
:108C9000E8E74FF44073E5E74FF48063E2E74FF411
:108CA000A063DFE74FF4C063DCE74FF4E063D9E78C
:108CB0000023D7E743F00303DEE743F00203DBE7DB
:108CC000026912B109224275B8E77047026912B110
:108CD00008224275B2E7704703690BB182681360DE
:108CE000704703690BB1C26813607047036933B101
:108CF00042681269134214BF012000207047FF2010
:108D00007047036910B504460BB3012911D04BB26B
:108D10002BB1022916D02046BDE810408EE709226B
:108D20000376C3754275FFF789FFC36822691A602D
:108D3000F1E70923437500230376C375FFF77EFF30
:108D40008368F3E700234375FFF778FFE3E710BD7F
:108D50000B694BB103784B758378CB75C3780B7671
:108D600043788B75084669E77047036910B5044678
:108D7000ABB101461930FFF7EBFF094B9C420ED116
:108D8000084A41F20403D15821F0E001D150D158F2
:108D900041F0C001D150044B4FF4A062DA6010BD25
:108DA0001C02FF1F0070044000B00440B24B10B51D
:108DB000DC68D4E900309B6804309847D4E900307F
:108DC0009B6824309847D4E900309B68443098472A
:108DD000D4E900309B6864309847D4E900309B6840
:108DE00084309847D4E900309B68A4309847D4E990
:108DF00000309B68C4309847D4E900309B68E43069
:108E00009847D4E900309B6800F582709847D4E910
:108E100000309B6800F592709847D4E900309B6859
:108E200000F5A2709847D4E900309B6800F5B27055
:108E30009847D4E900309B6800F5C2709847D4E9A0
:108E400000309B6800F5D2709847D4E900309B68E9
:108E500000F5E2709847D4E900309B6800F5017096
:108E60009847D4E900309B6800F509709847D4E929
:108E700000309B6800F511709847D4E900309B687A
:108E800000F519709847D4E900309B6800F521700F
:108E90009847D4E900309B6800F529709847D4E9D9
:108EA00000309B6800F531709847D4E900309B682A
:108EB00000F539709847D4E900309B6800F541709F
:108EC0009847D4E900309B6800F549709847D4E989
:108ED00000309B6800F551709847D4E900309B68DA
:108EE00000F559709847D4E900309B6800F561702F
:108EF0009847D4E900309B6800F569709847D4E939
:108F000000309B6800F571709847D4E900309B6889
:108F100000F579709847D4E900309B6800F204406E
:108F20009847D4E900309B6800F224409847D4E980
:108F300000309B6800F244409847D4E900309B68B9
:108F400000F264409847D4E900309B6800F2844006
:108F50009847D4E900309B6800F2A4409847D4E9D0
:108F600000309B6800F2C4409847D4E900309B6809
:108F700000F2E4409847D4E900309B6800F2445086
:108F80009847D4E900309B6800F264509847D4E9D0
:108F900000309B6800F284509847D4E900309B6809
:108FA00000F2A4509847D4E900309B6800F2C45006
:108FB0009847D4E900309B6800F2E4509847D4E920
:108FC00000309B6800F244609847D4E900309B6809
:108FD00000F264609847D4E900309B6800F2846036
:108FE0009847D4E900309B6800F2A4609847D4E920
:108FF00000309B6800F5F2709847D4E900309B6818
:1090000000F2C4609847D4E900309B6800F2E46045
:109010009847D4E900309B6800F204709847D4E97F
:1090200000309B6800F224709847D4E900309B68B8
:1090300000F244709847D4E900309B6800F26470F5
:109040009847D4E900309B6800F284709847D4E9CF
:1090500000309B6800F2A4709847D4E900309B6808
:1090600000F2C4709847D4E90030BDE810409B6816
:1090700000F2E470184700BF14FE000072B64FF013
:10908000E02318B1034AC3F80C2DFEE7024AC3F8E7
:109090000C2DFAE70400FA050100FA0572B60F4B31
:1090A0004FF0FF32C3F88020C3F88420C3F8882033
:1090B000C3F88C20C3F88021C3F88421C3F8882129
:1090C000C3F88C2100221146981801326A2A80F8D0
:1090D0000013F9D1024B1960704700BF00E100E0B6
:1090E00010E000E02DE9F041224C236898476368C6
:1090F000984762B6204D214CFFF75CFD6420FFF7D6
:1091000069FD6B6A9847236898471D4B1B68984711
:109110001C4B9B6998471C4B9B6A98471B4B1B68D1
:1091200098471B4B1B6898471A4B04F2A4761B68A0
:10913000984704F2C4772B693046984704F2E474E8
:109140002B693846984720462B6998472B6A20465A
:1091500098472B6A8046384698472B6A4400304629
:10916000984744EA880464B20B4B20431870BDE86A
:10917000F08100BFDC09FF1F0800FF1F3800FF1F40
:10918000D008FF1FB008FF1F5C08FF1F4809FF1F22
:109190000409FF1F8808FF1F242EFF1FFEE77047EA
:1091A000704700BF01230360036843F0004343F4AA
:1091B00040630360074BC360C36A43F08053C362DC
:1091C000036823F001030360036823F00063036076
:1091D000704700BF2200513E2DE9F0476F4DDFF888
:1091E000D4A141F2380841F23C0655F80830DAF8CB
:1091F0000C4043F4006345F80830AB59606843F411
:109200008053AB51AB5923F48023AB512368022721
:109210004FF0090980F8597680F8797680F89976C8
:1092200080F8B9961B6800F244609847D4E9003092
:109230001B6800F264609847D4E900301B6800F2B4
:1092400084609847D4E900301B6800F2A460984716
:10925000D4E900305B6900F2A46098475048FFF7FA
:10926000A1FF55F80830606843F4806345F8083082
:10927000AB5943F40053AB51AB5923F48023AB51AA
:10928000236880F8F97280F8197380F8397380F8D0
:10929000D9921B6800F539709847D4E900301B68F3
:1092A00000F541709847D4E900301B6800F549701B
:1092B0009847D4E900301B6800F531709847D4E92D
:1092C00000305B6900F5317098473648FFF76AFF58
:1092D00055F80830606843F4606341F2300245F8A5
:1092E0000830AB5843F48053AB50AB5923F4802380
:1092F000AB51236880F8797280F8B97280F899725E
:1093000080F8199280F8399280F859921B6800F51C
:1093100019709847D4E900301B6800F52970984708
:10932000D4E900301B6800F521709847D4E900307B
:109330001B6800F501709847D4E900301B6800F500
:1093400009709847D4E900301B6800F51170984700
:10935000D4E900305B6900F501709847D4E900302A
:109360005B6900F509709847D4E900305B6900F546
:10937000117098470C48FFF715FF0C4ADAF81030C7
:109380001360626802F531715960094903F11400F4
:1093900002F5017208609A61BDE8F0870070044030
:1093A00000C0024000D0024000C00A40702EFF1FE3
:1093B0006C2EFF1F14FE000038B50F4B0F4DDC68FC
:1093C000D4E900309B6800F539709847D4E9003043
:1093D0009B6800F541709847D4E900309B6800F520
:1093E00049709847236868689B6898472A6813689B
:1093F00043F44063136038BD14FE00005C08FF1F97
:1094000038B5104B104DDC68D4E900309B6800F58E
:1094100019709847D4E900309B6800F52970984787
:10942000D4E900309B6800F5217098472368A8694B
:109430009B6898476A69054BEB61136843F4406386
:10944000136038BD14FE00005C08FF1FFD9400008F
:10945000F8B50546406803690C461746002B2FD027
:10946000184BDE6833689B6998472B68CFB144F08E
:1094700000645C63DA6AD200FCD5DA6A686842F09C
:109480008052DA6233685B6998472B68DA6A12F0B7
:10949000F00FFBD0986B1A6842F44062C0B21A60B9
:1094A000F8BD44F000445C63DA6A120B12F00C0F52
:1094B000FAD1DA6A12F0F00FFBD0986BC0B2EFE786
:1094C0001846EDE714FE00002DE9F041DFF8288092
:1094D00046180446C7434D1EB44201D1BDE8F08191
:1094E00014F8011B3A19531B5A425A414046FFF7E0
:1094F000AFFF04F8010CEFE77008FF1F0A460146B2
:109500000048A5E77008FF1F2DE9F041DFF828802B
:1095100046180446C7434D1EB44201D1BDE8F08150
:1095200014F8011B3A19531B5A425A414046FFF79F
:109530008FFF04F8010CEFE75C08FF1F0A460146A5
:10954000004885E75C08FF1F38B5054601F07F003D
:10955000AB68002198470021AB6808469847002176
:10956000AB680402084698470021AB6804430846EC
:10957000984724020443AB68012100209847240245
:10958000204338BD024B01461868FFF7DDBF00BF1E
:10959000702EFF1F024B01461868FFF7D5BF00BFB2
:1095A0006C2EFF1F70B504461546A36841F080007D
:1095B00000219847A3680021280E9847A36800213E
:1095C000C5F307409847A3680021C5F307209847D3
:1095D000A368E8B20121BDE870401847024B0A4673
:1095E00001461868FFF7DEBF702EFF1F024B0A46C8
:1095F00001461868FFF7D6BF6C2EFF1F024B0A46C4
:109600000146186824E700BF702EFF1F08B503F05D
:10961000B7FF08BD08B572B604F0AAF804F05AF80E
:1096200062B608BD03F0B6BF70B506460D4600240D
:10963000A54200DC70BD305D03F0ACFF0134F7E7FC
:1096400008B504F0FDFC002004F046FA002004F008
:10965000EBFB0A4B41F234015A5822F480225A5053
:1096600041F23C015A5822F400125A5041F20401CE
:109670005A5822F480225A5008BD00BF007004409E
:1096800008B505F09FFD04F073F804F023F805F029
:109690001BFE4920BDE8084003F04EBE70B50D46E4
:1096A000064603F06DFFA8420BD2002070BD3019B2
:1096B00003F0E6FF0028F8D10134AC42F7DB0120CB
:1096C000F4E70024F9E70121E8E700BF2DE9F84FAE
:1096D00041F23C01944B5A5842F000625A5041F218
:1096E00030015A5842F000625A50904BDC68606872
:1096F000082380F8F93080F819312368E4301B68BA
:109700009847D4E900301B6800F582709847884B71
:10971000884A0D21996091600021D960D1600421AF
:1097200019621162596251625A6A42F080025A62A9
:109730005A6A1206FCD4DA6C996C0A44596C11FA14
:1097400082F2196C11FA82F2D96B11FA82F2996BDA
:1097500011FA82F2C2F34E02764942F40042DA6212
:109760004B6A43F080034B624A6A12F08002FBD1DD
:10977000CB6C886C704C714FDFF8DCC16C4D704E57
:109780000344486C10FA83F3086C10FA83F3C86B37
:1097900010FA83F3886B10FA83F3C3F34E0343F498
:1097A0000043CB622368604841F23C0E43F0020361
:1097B000236050F80E3043F0020340F80E30B62319
:1097C000A0F578303B7041F204045E4BC0F800C055
:1097D0000120185341F20C046FF0020A43F804A070
:1097E00041F2100441F234081D5141F2140441F2D7
:1097F0001E051A5341F218046FF005091A5141F27F
:10980000080441F23E0B185103245C5341F2160543
:10981000A4445C5341F206055A5341F21C055853C7
:10982000A8257D70484D2E6041F22405474E5A53BD
:1098300041F22C055A5141F230055E51022523F8C0
:10984000085041F23808063643F8089041F22808DB
:1098500043F8085048F2030823F80B8041F2360B16
:1098600023F80B8041F2260B40F2011823F80B80FD
:109870004FF0200B23F80EB04FF0B80ED87687F8D3
:1098800002E0DFF8D8E0CEF800C041F2440C23F843
:109890000C0041F24C0C43F80CA041F2500C43F880
:1098A0000C1041F254015A5241F258015A5041F2FF
:1098B0004801585041F25E015C5241F256015C523F
:1098C00041F246015A5241F25C015852A921F97005
:1098D0001F492048086041F264015A5241F26C016C
:1098E0005A5041F2700241F27E019E5041F27402E0
:1098F0009D5241F2780243F8029041F268029D5075
:1099000048F203425A5241F276015A5241F266023B
:109910004FF4087123F8028041F27C029952DC7600
:1099200062B6BDE8F88F00BF0070044014FE00006E
:1099300000B0034000B00B404080044000100240E3
:1099400010B003400080004020900040A814FF1F8A
:109950006090004010B00B4044FE0000409000407A
:109960000B4B03F582510A6822F002020A6041F2B1
:109970003C02995821F002019950995821F0006158
:10998000995041F230015A5822F000625A50704703
:1099900000700440124B10B5DC686068002380F84A
:1099A0007B3580F85B352368092280F8792580F8BB
:1099B00059251B6800F264509847D4E900301B68B1
:1099C00000F2445098476368D3F84C25D3F85415F7
:1099D0001160D3F86C25D3F87435136010BD00BF47
:1099E00014FE0000044BDB685B68D3F85025D3F805
:1099F00054351360704700BF14FE0000044BDB6851
:109A00005B68D3F87025D3F874351360704700BFD6
:109A100014FE0000044BDB685B68D3F84C25D3F8D8
:109A200054351360704700BF14FE0000044BDB6820
:109A30005B68D3F86C25D3F874351360704700BFAA
:109A400014FE0000054BDB685968D1F84825D1F8B1
:109A50005415D3684B40D360704700BF14FE00001C
:109A6000054BDB685968D1F86825D1F87415D368BF
:109A70004B40D360704700BF14FE0000064AD2E995
:109A80000131C8540133C3F309035360034AD37847
:109A900043F08003D3707047EC08FF1F00A00E4016
:109AA000094AD2E903318B420CD05169C95C01707B
:109AB0000133C3F30903D360044A1368013B136005
:109AC0000120704700207047EC08FF1FC014FF1FE3
:109AD00070B506460D460024A54200DC70BD305D21
:109AE000FFF7CCFF0134F7E7014B1868704700BF60
:109AF000C014FF1F08B5352003F06CFC064A002394
:109B00001360064A3520C2E90333C2E90033BDE8D9
:109B1000084003F011BC00BFC014FF1FEC08FF1F7A
:109B2000104941F2280210B58B5823F480638B5002
:109B30000D4BDC686068082380F8D93480F8B934AC
:109B4000236800F2C4401B689847D4E900301B68C2
:109B500000F2A4409847352003F03CFCBDE81040DB
:109B6000C8E700BF0070044014FE00001A4941F22B
:109B7000280210B58B5843F480638B50174BDC6878
:109B80006068032380F8D93480F8B934236800F280
:109B9000C4401B689847D4E900301B6800F2A44019
:109BA00098470F4BDA7802F0F302DA7000229A70CD
:109BB0000C4A916B0C4AB2FBF1F2C2F30421D2B20F
:109BC00019705A70DA7842F02C02DA703520BDE84C
:109BD000104003F0B1BB00BF0070044014FE000051
:109BE00000A00E40EC08FF1FC0C62D00094B1B68EB
:109BF000994270B506460D4609D80024AC4201DBF7
:109C0000012070BD3019FFF74BFF0134F6E700204B
:109C1000F7E700BFC014FF1F30B519490A79D2B267
:109C2000900611D51748CC79D0E90435E4B2EC544C
:109C30000133C3F30903036113480368013303606D
:109C40000B7903F0DF030B71130612D50D4AD2E92D
:109C500000318B420A490DD09068C05C0133C0B21C
:109C6000C3F30903C8711360054A137903F07F0336
:109C7000137130BDCB7803F07F03CB70F4E700BFE6
:109C800000A00E40EC08FF1FC014FF1F094AD2E9D4
:109C900003318B420CD05169C95C01700133C3F3AD
:109CA0000903D360044A1368013B13600120704725
:109CB000002070472C09FF1FD01CFF1F034B1B7E89
:109CC000022B00D1E2E70020704700BF2C09FF1FE4
:109CD000014B1868704700BFD01CFF1F08B52D202E
:109CE00003F078FB064A00231360064A2D20C2E9E0
:109CF0000333C2E90033BDE8084003F01DBB00BFD9
:109D0000D01CFF1F2C09FF1F104941F2340210B56F
:109D10008B5823F480638B500D4BDC6860680823FC
:109D200080F8793480F85934236800F264401B6865
:109D30009847D4E900301B6800F2444098472D2032
:109D400003F048FBBDE81040C8E700BF00700440C6
:109D500014FE00001F4B10B5DC68D4E90030DB684E
:109D600000F284709847D4E900309B6900F2847057
:109D700098471949606841F2340200F264408B58F8
:109D800043F480638B500323437500F80B3C236836
:109D90001B689847D4E900301B6800F2444098479C
:109DA0000E4BDA7802F0F302DA7000229A700C4A55
:109DB000D16B0C4AB2FBF1F2C2F30421D2B219709A
:109DC0005A70DA7842F02C02DA702D20BDE810408B
:109DD00003F0B2BA14FE00000070044000A0064078
:109DE0002C09FF1FC0C62D00074A137E5BB1D2E9C4
:109DF0000131C8540133C3F309035360034AD378D4
:109E000043F08003D37070472C09FF1F00A0064069
:109E1000094B1B68994270B506460D4609D80024C7
:109E2000AC4201DB012070BD3019FFF747FF013460
:109E3000F6E70020F7E700BFD01CFF1F30B51A4936
:109E40000A79D2B2900614D51848CC79D0E90435F5
:109E5000E4B2EC540133C3F309030361144803680B
:109E600001330360134B052018600B7903F0DF0307
:109E70000B71130612D50D4AD2E900318B420A4903
:109E80000DD09068C05C0133C0B2C3F30903C87140
:109E90001360054A137903F07F03137130BDCB784B
:109EA00003F07F03CB70F4E700A006402C09FF1FEE
:109EB000D01CFF1F742EFF1F10B50A4C0123237600
:109EC000FFF70CFF2420FFF78FFF2420FFF78CFF04
:109ED0002420FFF789FF00232376FEF775FE024B4F
:109EE000586010BD2C09FF1FD01CFF1F37B5114C47
:109EF000207E0128254611D0022801D100200DE046
:109F00000023032101A80193FFF782FF40B10A4912
:109F100001A805F0F9F950B90120207603B030BD51
:109F2000064B5868FEF760FEB0F5AF7FE6D9022316
:109F30002B76E3E72C09FF1F8F000100D01CFF1FC9
:109F400008B5FFF7D3FF28B9034B187E003018BFC0
:109F5000012008BD0020FCE72C09FF1F10B50446B6
:109F6000FFF7EEFF18B12046BDE810403CE710BDFA
:109F700070B506460D460024A54200DC70BD305D7C
:109F8000FFF7ECFF0134F7E7012870B505D043B2C5
:109F90007BB102281BD0002013E0184B9A680020E8
:109FA00003F10C0411F0FF0F06D10028F3D09A60E2
:109FB000F1E7124A9360EEE7802A03D100B19A607C
:109FC000012070BD11550120090A0132EAE7FFF7AF
:109FD0008DFF0028F4D00A4D0024A5F10C06B368CB
:109FE000A34205D80D20FFF7FFFE0020B060E8E790
:109FF00015F8010BFFF7F8FE0134F0E7D01CFF1F46
:10A00000DC1CFF1F37B5042500240DF10700FFF706
:10A010003DFE08B98DF807009DF80730013D44EA80
:10A0200003644FEA1424F0D1204603B030BD00BFD2
:10A030002C4B41F23C015A5842F080725A5041F286
:10A0400038015A5842F480525A50A3F570435A6D61
:10A0500042F004025A655A6D42F061025A654FF4AB
:10A06000FA529A600022DA64996D41F00201996512
:10A07000996D41F080019965F32119661A49596675
:10A080004FF47A611A6199611A6399631A64996449
:10A09000D96841F00801D960596941F00801596156
:10A0A000D96A41F00801D962596B41F0080159633E
:10A0B000D96B41F00801D963596C41F0080159642A
:10A0C0004FF40071C3F89810D96E41F04001D96681
:10A0D000596D41F002015965196841F00801196094
:10A0E0001A6670470070044033003333034941F26D
:10A0F0003C028B5823F080738B50704700700440F3
:10A10000054BB0F5FA5F28BF4FF4FA504FF40072D8
:10A110009864C3F89820704700800340024B986C05
:10A120001B6CC01A80B2704700800340064AD2E917
:10A130000131C854013303F01F035360034AD3783D
:10A1400043F08003D37070478009FF1F00C00640B2
:10A15000094AD2E903318B420CD05169C95C0170C4
:10A16000013303F01F03D360044A1368013B1360FB
:10A1700001207047002070478009FF1F6825FF1FDE
:10A1800070B506460D460024A54200DC70BD305D6A
:10A19000FFF7CCFF0134F7E7014B1868704700BFA9
:10A1A0006825FF1F08B5312003F014F9064A002383
:10A1B0001360064A3120C2E90333C2E90033BDE827
:10A1C000084003F0B9B800BF6825FF1F8009FF1FD2
:10A1D000104941F2340210B58B5823F480538B5050
:10A1E0000D4BDC686068082380F8F93380F8193477
:10A1F000236800F579701B689847D4E900301B6824
:10A2000000F204409847312003F0E4F8BDE8104024
:10A21000C8E700BF0070044014FE00002C4941F262
:10A22000340238B58B582B4C43F480538B5094F840
:10A230003C30002B3CD1284BDD686868032380F854
:10A24000F93380F81934012380F8FB3380F81C348B
:10A250002B6800F579701B689847D5E900301B68BA
:10A2600000F2044098471D4BDA7802F0F302DA70EE
:10A2700000229A70A16B1A4AB2FBF1F2C2F30421D8
:10A28000D2B219705A70DA7842F02C02DA7094F86F
:10A290003C20012A07D19A7842F0A0029A709A795C
:10A2A00042F020029A713120BDE8384003F044B8F2
:10A2B000012BD8D1084AD5686868032280F8F923B1
:10A2C00080F8192480F81B3480F8FC33C0E700BF05
:10A2D000007004408009FF1F14FE000000C006400B
:10A2E000C0C62D00094B1B68994270B506460D4645
:10A2F00009D80024AC4201DB012070BD3019FFF702
:10A3000027FF0134F6E70020F7E700BF6825FF1FAD
:10A3100010B51D490A79D2B290060FD51B48C979EC
:10A32000D0E90434C9B2E15419490C7934B9013384
:10A3300003F01F0303610B6801330B60510607D55F
:10A34000134B002119711049CB7803F0BF03CB7078
:10A35000130614D50D49D1E9003293420A4A0FD0B1
:10A360008868C05C013303F01F03C0B2D0710B607A
:10A37000074B01211971D37843F04003D37010BD0E
:10A38000D37803F07F03F9E700C006408009FF1F80
:10A390006825FF1FF0B585B004468DF805108DF8CF
:10A3A0000620032115461E460122052301A88DF82B
:10A3B000043002F0B9F9A3698DF807009847042129
:10A3C00023690DEB01009847FEF7FEFB0746E369A2
:10A3D000984707281ED9082163690DEB01009847AB
:10A3E0000122072102A89DF80F4002F09DF9844246
:10A3F00015D19DF80830052B11D19DF80930FF2BA0
:10A400000DD19DF80A30AB4202BFDDF80B301BBA0C
:10A41000336004E03846FEF7E7FB0A28D7D905B0D9
:10A42000F0BD73B562F07F028DF802201A168DF828
:10A4300003201A1406468DF8042005201A128DF800
:10A4400000008DF801108DF80520072101226846D3
:10A450008DF8063002F068F9B3698DF80700984767
:10A460006C460025B36814F8010B01359847082D98
:10A47000F8D10220FEF7AEFB02B070BD08B5002196
:10A48000084602F057FBBDE8084000F013BB10B4CB
:10A490000C4630B9044B1B6820469B6810BC114623
:10A4A0001847002010BC7047BC25FF1F2DE9F04164
:10A4B0002B4C2C4EE5682C4F68682B686430DB68A9
:10A4C000706098472B6870685B6998476B68226971
:10A4D000326003F531735360244B4FF47A725A8023
:10A4E00041F2707200241A804FF480721A81DC717C
:10A4F00022461721204602F03FFB22461A21204621
:10A5000002F03AFB22460621204602F035FB4FF4CA
:10A5100048725F21204602F02FFB4FF44872602101
:10A52000204602F029FB384602F04AF9104B602120
:10A5300020461C7002F0FEFA5F213860204602F0CF
:10A54000F9FA0C4B786193F8E830012B05D12B68B0
:10A5500070685B69BDE8F0411847BDE8F08100BF55
:10A5600014FE0000BC25FF1F782EFF1FA02EFF1F2A
:10A57000AC2EFF1F382DFF1F234B10B5DC68D4E92C
:10A580000030DB6804309847D4E900301B69243080
:10A590009847D4E900305B6904309847D4E900302B
:10A5A0001B6A2430984770B3D4E900309B690430AB
:10A5B0009847D4E900301B6A2430984718BBD4E987
:10A5C0000030DB6824309847D4E900301B69043040
:10A5D0009847D4E900305B6924309847D4E90030CB
:10A5E0001B6A0430984770B1D4E900309B6924306D
:10A5F0009847D4E900301B6A0430984718B9BDE881
:10A60000104000F009BB10BD14FE000010B5534A05
:10A6100004461B2102F0B0FA20460022172102F066
:10A62000ABFA204607221A2102F0A6FA204640F68D
:10A630009F72182102F0A0FA204640F2055219211B
:10A6400002F09AFA032320460022522102F0C1FAB6
:10A6500020464FF01012042102F08EFA20464FF0EF
:10A660000052052102F088FA20460022062102F05D
:10A6700083FA20463A4A072102F07EFA2046394AF8
:10A68000092102F079FA2046374A082102F074FACB
:10A690002046364A0A2102F06FFA204600220B219A
:10A6A00002F06AFA20464FF48052252102F064FA43
:10A6B00020464FF47A62262102F05EFA204640F6E8
:10A6C000DD62272102F058FA204640F28442282118
:10A6D00002F052FA20460022292102F04DFA2046CB
:10A6E0000022502102F048FA20460022512102F0B7
:10A6F00043FA204645F681225D2102F03DFA2046CC
:10A7000040F6B8325E2102F037FA2046184A61213D
:10A7100002F032FA20466FF00042622102F02CFA79
:10A7200020464FF00122542102F026FA20464FF035
:10A730000122562102F020FA20460E4A582102F04A
:10A740001BFA20460C4A5A2102F016FA204647F618
:10A75000FF725C21BDE8104002F00EBA0100030058
:10A760004E014E01695C00017F5C00010001001890
:10A7700001000080630010270100020038B5044684
:10A78000324800F0D2F908226321204602F0F4F9A1
:10A7900000222921204602F0EFF901225221204611
:10A7A00002F0EAF900221C21204602F0E5F941F20C
:10A7B00070722421204602F0DFF9204600226B212E
:10A7C00002F0DAF9224800F0B0F9002227212046F1
:10A7D00002F0D2F92721204602F0ACF90546002804
:10A7E000F3D120460322522102F0C6F9204602226C
:10A7F000632102F0C1F90A226621204602F0BCF969
:10A80000144800F092F92A4620462A2102F0B4F9B1
:10A8100020464FF48052252102F0AEF91422662121
:10A82000204602F0A9F90C4800F07FF92A4620469C
:10A830006821FEF7B7FE204603226321FEF7B2FE31
:10A840000648BDE8384000F070B900BF9300010031
:10A85000B9000100DA00010013010100410101000B
:10A8600070B504462C482D4D0E4600F05EF920468A
:10A870000822632102F080F900225221204602F0D2
:10A880009BF924212881204602F054F90022E86037
:10A890001C21204602F090F9002328820122204644
:10A8A000292102F096F9204601230022522102F0CC
:10A8B00090F9204600230122242102F08AF9334630
:10A8C00020460022242102F084F9204600226B2138
:10A8D00002F052F900231A461C21204602F079F9B1
:10A8E0004FF47A70FEF776F920460022272102F015
:10A8F00043F9EA682046242102F03EF92B8A2046DB
:10A9000000221C2102F065F92B89204600225221E9
:10A91000BDE8704002F05DB965010100BC25FF1F74
:10A9200010B5264A04461B2102F026F920460022D3
:10A93000172102F021F9204607221A2102F01CF902
:10A94000204640F69F72182102F016F9204640F288
:10A950000552192102F010F902222046522102F07C
:10A960000BF92046082102F04BF920463C22202119
:10A9700002F002F920466FF00902212102F0FCF8F2
:10A980004FF4FA625F21002002F0F6F84FF47A6289
:10A990006021002002F0F0F8204640F2BD42242160
:10A9A00002F0EAF8204600221F2102F0E5F82046D6
:10A9B00000221C21BDE8104002F0DEB801000300B7
:10A9C00010B501F06BFA084B084C9B68003318BFB8
:10A9D000012384F8E8300220236E9847D4F8D4305D
:10A9E0000220BDE810401847542FFF1F382DFF1FCD
:10A9F00018B90F4B64221A707047830702D50C4BAD
:10AA00000222F8E710F00C0F02D0094B0322F2E704
:10AA1000C10602D5064B0422EDE7820602D5044B9F
:10AA20008022E8E74306E7D5014B0522E3E700BFB4
:10AA3000602FFF1FF0B5144F144B7E69144C012298
:10AA40005A600FCE25460FC50FCE0FC596E80300FE
:10AA500085E803003E6A0FCE04F128050FC50FCE2E
:10AA60000FC596E8030085E803007D6A0FCD5034DA
:10AA70000FC40FCD0FC495E80300064B032284E8F2
:10AA800003001A60F0BD00BF14FE0000542FFF1F2A
:10AA9000B02EFF1F502FFF1F07B5054B8DF8040088
:10AAA0009B6B012101A8984703B05DF804FB00BF30
:10AAB000B02EFF1F38B504463020250EFFF7ECFFFF
:10AAC0007820FFF7E9FF28093030FFF7E5FF05F0B0
:10AAD0000F003030C4F30745FFF7DEFF28093030A0
:10AAE000FFF7DAFF05F00F003030C4F30725FFF75A
:10AAF000D3FF28093030FFF7CFFF05F00F003030CB
:10AB0000E4B2FFF7C9FF2009303004F00F04FFF76B
:10AB1000C3FF04F13000FFF7BFFF0A20FFF7BCFFBF
:10AB20000D20BDE83840FFF7B7BF70B5064604F00A
:10AB300067FD00240546AC4207DB0A20FFF7ACFFA7
:10AB40000D20BDE87040FFF7A7BF305DFFF7A4FF01
:10AB50000134F0E77FB5184B5A7C72B1083301A974
:10AB6000092213F8014B01F8014B013AF9D10369AD
:10AB7000092101A8984704B070BD1D785C78DE7982
:10AB800059688DF806502A19033256FA82F29E79D6
:10AB90008DF8074056FA82F25E791B7956FA82F2F6
:10ABA00053FA82F309BA4FF48172ADF8042002918E
:10ABB0008DF80C30DBE700BF602FFF1F1FB5436926
:10ABC000092101A8984728B9124B01225A6005B003
:10ABD0005DF804FB002101AA0B4612F8010B0131BC
:10ABE00003440829DBB2F8D19DF80C209A42094BA6
:10ABF00001D00222EAE79DF805201A709DF8062090
:10AC00005A709DF807209A70029A12BA9A60002230
:10AC1000DCE700BF542FFF1F70B5194C002584F8E6
:10AC2000E850236E284698472846D4F8D4309847F1
:10AC3000A36D9847D4F8CC30124C984763695B6891
:10AC400098474FF4FA70FDF7C5FFA36A5B68984711
:10AC5000236A5B689847636A5B689847E369DB69C6
:10AC6000984701F0DBFB00F0E7FCA3689847064B30
:10AC7000064A1A6001206368BDE87040184700BFAB
:10AC8000382DFF1F14FE00000000FF1F78563412FD
:10AC9000F0B59C4C9C4E2378A1687370642232708E
:10ACA00062687160022A8BB02546374604D10023C2
:10ACB00073600123337042E1882B00F0BD8152D8CC
:10ACC0000A2B00F04E811FD8042B00F0D28009D847
:10ACD000022B00F0AE8000F2BE80012B00F09A80C3
:10ACE00002239FE1062B00F01581C0F0F980092BAB
:10ACF000F6D16378013B032B00F2C180DFE813F04B
:10AD00001D01210124011F01422B00F07C8113D879
:10AD1000402B00F0168100F266810F2BE0D16378A2
:10AD2000062B00F2AC80DFE813F0420147014B0133
:10AD30004F01530157015A01452B00F00782462B62
:10AD400000F01882442BCBD1704C7149E36CA87889
:10AD50009847C0B2FFF74CFE830740F1F080D4F86B
:10AD6000C0306B4963E0962B00F0088223D8922B09
:10AD700000F0EC8113D8902B00F0D78100F2E28133
:10AD80008F2BADD16378C8B2C1F30742042B76D8BC
:10AD9000DFE813F09301AC01C101AF01C401942BB2
:10ADA00000F0E181594AA078637840F2D681D2F868
:10ADB000B840321DD4E1AA2B00F03B8210D8982B6A
:10ADC00000F00782C0F0FA81A02B89D16378042BB0
:10ADD00055D8DFE813F01E022202250228022B02BA
:10ADE000F22B00F03682FF2B00F04E82AB2B7FF46B
:10ADF00077AF464C464A236FA97868789847C0B227
:10AE0000FFF7F6FD10F0060F00F09980D4F8E4305B
:10AE10003F4A74E03D4CA878E3699847C0B2FFF719
:10AE2000E7FD820740F18B80D4F89030A968A878BC
:10AE30000CE0364DA078AB699847C0B2FFF7D8FD5B
:10AE400083077CD5D5F88C30A168A0789847C0B22C
:10AE5000FFF7CEFD73E02D4CA878636A9847C0B227
:10AE6000FFF7C6FD87076AD5D4F89830A8789847C9
:10AE7000EDE76378012B10D01BB1022B24D0032304
:10AE8000D0E0224DA078AB6A9847C0B2FFF7B0FD82
:10AE9000860754D5D5F89C30D6E71C4CA878E36AD1
:10AEA00005F108019847C0B2FFF7A2FD800708D559
:10AEB000D4F8A030A87805F108019847C0B2FFF790
:10AEC00097FDAB687B603AE0104CA878236B9847FD
:10AED000C0B2FFF78DFD810731D5D4F8A430A5E7C6
:10AEE0000A4C6878636B0A46A9789847C0B2FFF7A6
:10AEF0007FFD10F0060F22D0D4F8A830AA68A978F8
:10AF0000687818E0542FFF1F602FFF1F382DFF1F98
:10AF1000642FFF1FA14DA178AB6B6078321D98475D
:10AF2000C0B2FFF765FD10F0060F08D0D5F8AC30C1
:10AF3000A1786078321D984789E7994B59600BB02A
:10AF4000F0BDFFF73DFDFAE741B1012997D1944BE0
:10AF50001970944B9B695B699847F0E7904B1970A7
:10AF6000EDE76378013B042B89D8DFE803F00306A3
:10AF70000D111D008A4B9B68A4E7884B93F8E830BD
:10AF80005A1E534253419DE7854B93F9003099E790
:10AF9000824B1A7893F874308DF801208DF81530B3
:10AFA000684600F057FEB4E07F4B1B788AE77D4B84
:10AFB000DB691B681B8885E77A4BDB695B68F9E70F
:10AFC000784BDB699B68F5E7764BDB69DB68F1E77B
:10AFD000744BDB691B69EDE7714B1B6972E7714BC1
:10AFE000DB695B69E6E76378012B04D0022B7FF411
:10AFF00046AF6E4800E06E4804236A4689B200F00E
:10B0000017FD009B5EE76378012B03D0022B0BD06A
:10B0100003234FE6664C204600F04AFD10F0FD0F7A
:10B0200004D005233B708AE7604CF4E7AA782989AD
:10B03000204600F0E1FB82E763787BB9012373745B
:10B04000022333725B4B1B6809365A1E073312F812
:10B05000011F06F8011B9A42F9D170E7012B23D199
:10B06000544B1A6813785178303BDBB2303903EB1C
:10B07000830301EB4303F3719378D178303BDBB268
:10B0800003EB8303303901EB4303B3715379303B56
:10B0900073719379D279303BDBB203EB8303303A9F
:10B0A00002EB430333714AE7042B7FF448AF424B72
:10B0B0009A789B7D3271737141E7684600F0D6FA49
:10B0C00090B19DF815309DF800201B0443EA02233F
:10B0D0009DF8012013439DF81420684643EA02635B
:10B0E000736000F021FD2AE780239BE72B4B93F848
:10B0F0007420002302218DF801008DF800108DF8D6
:10B1000015208DF814106846002B7FF44AAF00F02C
:10B110000BFD786013E7214B1878EAE719B91F4B4C
:10B12000187893F874200123E4E71C4B1B6DA17879
:10B13000607804F108029847C0B2FFF759FCA36891
:10B140007360FCE6154BD3F8C430F0E7134B9B6CEF
:10B150000A466178A0789847F1E6D2F8BC400A46E2
:10B160001946A047EBE60E4B93F90230002B01DAAB
:10B170000B239FE5094B321D5B6CEAE7637833B123
:10B18000012B7FF47CAE054BD3F8C03001E0034BBC
:10B19000DB6CA078311D98473070D0E6382DFF1F4A
:10B1A000C409FF1F14FE0000242EFF1F7008FF1F9C
:10B1B0005C08FF1FC009FF1FFC25FF1F63782BB130
:10B1C000012B7FF45CAE354B9B6F7BE6334B5B68AA
:10B1D00078E66378012B18D06BB1022B7FF44FAE69
:10B1E0002E4C6369D3F80432984708B908233370AA
:10B1F000D4F8883001E0294B5B69D3F804329847D2
:10B2000000287FF49CAE08230CE7244BD3F8883049
:10B21000F3E7A078FEF7B8FE7BE7FEF74DFE8EE67B
:10B22000FEF78EFE75E7FEF761FE72E7FEF7EAFEB7
:10B230006FE71A4DA178EB6E6078321D9847C0B267
:10B24000FFF7D6FB10F0060F3FF479AED5F8E030EB
:10B250006EE66378812B7FF472AEA378922B7FF435
:10B260006EAEE37AA32B7FF46AAEA37AB42B7FF49D
:10B2700066AE637AC52B7FF462AE237AD62B7FF459
:10B280005EAEFFF7C9FC5AE640F2D24399427FF422
:10B2900056AE034B01221A6051E600BF382DFF1F46
:10B2A000E025FF1F2DE9F843164E174D7268012A5D
:10B2B00006D06A68154B282000FB0230FFF74AFCD5
:10B2C0002B681BB1124B01205B689847114B124F42
:10B2D000DFF8389000245C744FF028083B68A342E4
:10B2E00001D8BDE8F88308FB0490FFF767FC73689A
:10B2F000012B04D06C60BDE8F843FFF7C9BC0134F2
:10B30000ECE700BF542FFF1FE025FF1FB02EFF1FEB
:10B3100014FE0000602FFF1F502FFF1F042840F273
:10B3200088806D2840F28780862840F28680A42895
:10B3300040F28580C72840F28480F42840F2838060
:10B34000B0F5967FC0F08180B0F5B47F7FD3B0F5C3
:10B35000D77F7ED340F2022398427CD9B0F51B7F81
:10B360007BD340F2ED23984279D940F28D33984255
:10B3700077D940F24B43984275D940F245539842F1
:10B3800073D940F27163984271D9B0F5FA6F70D3F6
:10B3900040F6911398426ED940F6B73398426CD973
:10B3A000B0F5616F6BD341F2CB03984269D941F29A
:10B3B0001D43984267D941F63703984265D941F653
:10B3C0004B53984263D942F28B33984261D942F68B
:10B3D000F72398425FD943F2BB4398425DD944F2C8
:10B3E000730398425BD944F61F63984259D945F6D6
:10B3F000B373984257D947F22F53984255D948F61C
:10B400009F43984253D94AF2F773984251D94CF668
:10B410002B1398424FD94FF22F2398424DD9294BE5
:10B4200098424CD903F57A53984294BF24200020C7
:10B4300070470020704701207047022070470320AA
:10B44000704704207047052070470620704707208A
:10B45000704708207047092070470A2070470B206A
:10B4600070470C2070470D2070470E2070470F204A
:10B47000704710207047112070471220704713202A
:10B48000704714207047152070471620704717200A
:10B49000704718207047192070471A2070471B20EA
:10B4A00070471C2070471D2070471E2070471F20CA
:10B4B00070472020704721207047222070472320AA
:10B4C000704700BFF7240100164B30B55968164C81
:10B4D000164BD4F8A0001A684FF0FF35C4F8A050FE
:10B4E0001C79F4B1124CE4686468656B28420AD098
:10B4F0001D7A012D09BF0225012599611A611CBF22
:10B500005961DA601D72646D20420AD0187F0128EB
:10B510000BBF5A621A62022201220CBFD9629962E1
:10B520001A7730BD00800B4000A00440F425FF1FB7
:10B5300014FE0000134A1448136823F080031360BC
:10B54000016801316329034601D801607047002179
:10B550000160116821F01801116002794AB1027A84
:10B56000012A07D105221A721A7F012A06D1052263
:10B570001A777047002AF7D10422F4E7002AF8D19D
:10B580000422F5E700800B40F425FF1F244B002226
:10B5900010B5244C1A7141F230024020A35843F0F8
:10B5A0008073A350204B5A6D42F065025A651A68A9
:10B5B00042F00B021A6041F2A152DA64D3F88420FF
:10B5C000C3F88420DA6842F02802DA601A6842F090
:10B5D00040021A6001F0B0FE41F23802A35843F471
:10B5E0008063A350114BDC68D4E90030DB68043081
:10B5F000984763680E4A596A93F8380041F820204A
:10B60000596C93F8583041F823200A4B4FF0FF3221
:10B61000C3F8A0205820BDE8104001F08DBE00BF47
:10B62000F425FF1F0070044000800B4014FE000052
:10B6300002010B0000A0044008B5402001F0CAFE42
:10B64000084B1A6822F018021A601A6822F0800269
:10B650001A60582001F0BEFE034B4FF0FF32C3F8D2
:10B66000A02008BD00800B4000A00440564BF7B559
:10B670001D7906461C46DDB9544A116821F01801AF
:10B68000116041F2A151D1641D721D770121197120
:10B690009D729D77136843F0080313604C4BDB6881
:10B6A000D3E900305B6904309847284603B0F0BD09
:10B6B0001B7A012B4FF00005F7D9237F012BF4D91A
:10B6C000434B2571DF68D7E900309B690430984708
:10B6D0003E4A136823F018031360237A3370237AE9
:10B6E000022B69D1D4E90330C01AD4E905239B1A8F
:10B6F0004EF6602202FB00300A2358430623B0FBBB
:10B70000F3F0FFF70BFE7070002852D00123A372F4
:10B71000237F3375237F022B53D1D4E90830C01A1D
:10B72000D4E90A239B1A4EF6602202FB00300A235A
:10B7300058430623B0FBF3F0FFF7F0FD70750028C7
:10B740003CD00123A3777378BBB9224800F0B0F94D
:10B7500060B9012301AA10211E4800F069F99DF883
:10B760000430737013B102233370A3727B681A49DB
:10B770005A6A93F8383042F82310737DBBB91748E2
:10B7800000F096F960B9012301AA1021134800F0D6
:10B790004FF99DF80430737513B102233375A37705
:10B7A0007B680D495A6C93F8583042F823100125F4
:10B7B0007BE703233370ABE77570A9E70323337589
:10B7C000C1E700237375BEE7F425FF1F00800B401F
:10B7D00014FE00005C08FF1F02010B007008FF1F31
:10B7E00010B504462046FFF741FF00B110BD00F040
:10B7F000D5FAFFF757FDF5E7274B2DE9F041DD6856
:10B8000047686B689046254A90420CBF2433443306
:10B810004360234B0446DB6840680E469847A368A4
:10B82000012106209847A368002105209847A368B6
:10B830000121002098478307F5D5A3680021022045
:10B840009847A3680021300A9847A3680021F0B206
:10B850009847A368012140469847A3680021052026
:10B860009847A36801210020984710F00106F4D101
:10B87000A368012104209847A36831460520984712
:10B88000A3680121304698472B6860681B69984778
:10B890006760BDE8F08100BF14FE00005C08FF1F78
:10B8A0000800FF1F2DE9F74F9846464BD0F804904B
:10B8B000DB6801939246444A5B6890420CBF243394
:10B8C00044334360414B0446DB6840680D4698476B
:10B8D000A368012106209847A36800210520984706
:10B8E000A3680121002098478307F5D5A3680021AC
:10B8F00002209847A3680021280A9847A3680021DE
:10B90000E8B29847002608F1FF3BB045A36820D174
:10B91000A368002105209847A368012100209847CB
:10B9200010F00105F4D1A368012104209847A36811
:10B93000294605209847A368012128469847019B7E
:10B9400060681B681B699847C4F8049003B0BDE8A1
:10B95000F08F0135ADB215F03F071AF806002FD071
:10B96000ABEB060CDCF1000141EB0C0198472FBB5F
:10B97000B34523DDA368002105209847A368012172
:10B9800000209847C207F5D4A368012106209847F4
:10B99000A368002105209847A3680121002098474B
:10B9A0008307F5D5A368002102209847A3680021EA
:10B9B000280A9847A3680021E8B298470136A4E70F
:10B9C0000121D3E714FE00005C08FF1F0800FF1FE1
:10B9D000F8B5144B144ADD6847686B6890420CBF99
:10B9E000243344334360114B0446DB6840680E4601
:10B9F0009847A368002103209847A3680021300AD4
:10BA00009847A3680021F0B29847A368012100205D
:10BA100098472B6806461B69606898476760304600
:10BA2000F8BD00BF14FE00005C08FF1F0800FF1FE8
:10BA30002DE9F0471E461B4BD0F80480DD68914687
:10BA4000194A6B6890420CBF243344334360174B50
:10BA50000446DB6840680F469847A368002103202E
:10BA60009847A3680021380A9847F8B2A3680021D4
:10BA70009847002706F1FF3ABE4207D12B6860685D
:10BA80001B699847C4F80480BDE8F087AAEB070259
:10BA90005142A36851410020984709F80700013737
:10BAA000EAE700BF14FE00005C08FF1F0800FF1F4C
:10BAB0001A4BF7B5DE681A4A7368476890420CBFA4
:10BAC000243344334360174B0446DB68406898478F
:10BAD000A368002105209847A3680121002098470A
:10BAE00010F0710F05460FD1022301AA1421204640
:10BAF000FFF79EFF9DF80430122B0DD19DF8053005
:10BB0000342B0CBF00250225336860681B699847F9
:10BB10002846676003B0F0BD0225F5E714FE00007B
:10BB20005C08FF1F0800FF1FF7B504464078637DDF
:10BB3000454DFF2801D0FF2B0FD1297895F87420AF
:10BB40000A4301D1984208D0062240EA03402270FD
:10BB5000227540F0062003B0F0BD2B78834238D127
:10BB6000002836D080B20D2831D0FF2814BF06231C
:10BB700002232370627D95F87430934245D1002BE7
:10BB800043D0062323756378042B02D00A3B012B94
:10BB900010D82E4B6A6E1B69DA61637D012B01D0D0
:10BBA0000C2B07D101230021019301AAD5F8C43041
:10BBB0000846984763780F2B3FD1637D042B32D121
:10BBC0000022D5F8C43011460120984735E0022301
:10BBD000CFE7AB6D98472678022E0DD16778FCF73A
:10BBE000C3FF0D2F0DD0FF2F0DD10122184B03EBFA
:10BBF000C2035B68984726706B69D3F80432984794
:10BC0000B8E70022F2E70626F5E7D5F8CC309847EA
:10BC1000237D022B04BF06232375D5F88830D3F883
:10BC200004329847AFE7032B05D10022D5F8C43082
:10BC300011460520C9E70B2BF7D06078637D28708B
:10BC400085F8743087E700BF382DFF1F14FE000011
:10BC50004CFE000010B543780D2B0ED0FF2B14BF07
:10BC600006220222417D0270062443EA0223047563
:10BC700043EA014040F0C06010BD0222F2E7704785
:10BC800010B5064CA36D9847D4F8CC309847FCF714
:10BC900051FFBDE81040FCF767BF00BF382DFF1F04
:10BCA0000A4BD96810B579B1094A1368C31A994289
:10BCB0000AD2084B1060DB685C68D4F84815D4F8E9
:10BCC0005445CB686340CB6010BD00BFC409FF1F63
:10BCD0003026FF1F14FE000038B52B4B2B4CDB69C0
:10BCE0002B4D5B6900221B88628040F2C920294AE3
:10BCF0005843904284BF0122E270AA684FF6FF7356
:10BD0000B0FBF3F39A4238BFE27823613CBF42F0C4
:10BD10000302E270EA6F9A423EBFE27842F0050207
:10BD2000E270EA689A4284BF0321A170D5F88010BE
:10BD3000994207D9A37843F00503A370E2B9002321
:10BD4000237538BD1AB111B1134B984217D9A37896
:10BD5000002BF4D1237D632B01D80133F0E7642B52
:10BD6000EFD1D5F88830D3F8083298476B69D3F80B
:10BD700008329847237DF0E7074B9842DFD8A37835
:10BD800043F00103A370DAE714FE0000C409FF1FAB
:10BD9000382DFF1F42FDBC02B9FF450070B53B4D79
:10BDA000FCF712FF6B68C31A092B044602D9FFF790
:10BDB00093FF6C60364D2046D5F8D0309847EB6D38
:10BDC000204698472046334CFFF76AFFA3686A680D
:10BDD00003F460630AB143F00203AA6F0AB143F0AF
:10BDE000040394F901200AB143F008036A69127848
:10BDF0000AB143F01803D5F8882012780AB143F04D
:10BE00002803A2782AB1960754BF43F0410343F0B8
:10BE1000C1035007E27844BF43F4A07343F0010329
:10BE20003AB1910754BF43F4007343F4C06343F045
:10BE30000103520748BF43F42063626848BF43F0E0
:10BE400001031A4013F4606FA26009D000262B6E24
:10BE500085F8E86030469847D5F8D43030469847A2
:10BE600094F9003083B90C4BA2689B6932F0380218
:10BE700014BF1B695B699847A36813F0380F14BFA0
:10BE800032234FF4FA73E36070BD00BF3026FF1F0A
:10BE9000382DFF1FC409FF1F14FE0000024A9368DB
:10BEA00023F4606393607047C409FF1F234A2DE9A0
:10BEB000F8431368224C23F0800300261360022706
:10BEC000B04663781BBBE368D3E9032304F1300574
:10BED00028461360012100F023FE284600F06DFD86
:10BEE00080B12846D4F8109000F067FD2369D9F896
:10BEF00010200028CCBFDB689B681A60E3689A6852
:10BF00001B691360237D012B07D0032B0FD0A834AE
:10BF10000EB1BDE8F8830126D3E7216A284600F078
:10BF200035FD284600F045FD2775A061EFE7236E3B
:10BF3000626A84F8148013442366E8E700900340A3
:10BF4000742FFF1F01282DE9F04105460E461AD82F
:10BF50004FF0A8080D4F302418FB00443C4408FB68
:10BF600005750021204600F013FD95F82830314674
:10BF700023B9B6F5003FA8BF4FF400312046BDE815
:10BF8000F04100F0FFBCBDE8F08100BF742FFF1F3F
:10BF9000012838B50D460FD83023A82414FB0034EF
:10BFA000064804442046012100F0F2FC29462046C0
:10BFB000BDE8384000F0E2BC38BD00BF742FFF1F61
:10BFC000012938B514D04DB215B1022919D038BDA8
:10BFD0003023A82414FB00340E480444294620468C
:10BFE00000F0D0FC29462046BDE8384000F0D0BC27
:10BFF000084BA82202FB0030437843F00103437052
:10C00000E5E7044BA82202FB0030437843F0080325
:10C01000F5E700BF742FFF1F012870B51FD8A822B5
:10C02000104B02FB00F559195C5D4E788978002CA5
:10C0300014BF1024002402FB0030002944EA060447
:10C0400014BF2021002164B230300C4300F0BAFC50
:10C0500000280CBF402000202043C0B270BDFF204C
:10C06000FCE700BF742FFF1F012830B51DD851B168
:10C07000114DA82404FB00540D69E1606178ADB155
:10C0800021F00201617052B10B4CA82101FB00416B
:10C0900014690A614A7864B122F004024A7023B13B
:10C0A000054AA82101FB0020836030BD41F0020158
:10C0B000E8E742F00402F1E7742FFF1F01282DE9A1
:10C0C000F04104460F461BD8114B124EA82000FB2E
:10C0D000043598466A68AAB12846303000F069FCF9
:10C0E0006B680028B8BF404298420BDB0123AB705D
:10C0F000337823B91FB16B7843F008036B70377046
:10C10000BDE8F081A82303FB04840023A370F6E7B5
:10C11000742FFF1F4426FF1F012810B5044613D8B3
:10C120000A4AA82303FB00239868036963B1084BFC
:10C13000DB681B681B6A9847011C18BF0121204659
:10C14000BDE81040FFF7BABF10BD00BF742FFF1F3E
:10C1500014FE0000012838B50D4614D83023A82459
:10C1600014FB003408480444204600F02BFC01284E
:10C170002946204603D100F001FC29462046BDE8AF
:10C18000384000F0FDBB38BD742FFF1F012807D8D1
:10C19000A823302213FB00230248184400F0ECBB14
:10C1A000704700BF742FFF1F012808D8044BA82236
:10C1B00002FB00304378416023F00803437070476E
:10C1C000742FFF1F012809D8054BA82202FB00305D
:10C1D00080F8281011B94FF40033C362704700BFD4
:10C1E000742FFF1F01289FBF024BA82202FB0030C3
:10C1F000C1627047742FFF1F012807D8A82330227F
:10C2000013FB00230348184400F0CFBB4FF0FF306E
:10C21000704700BF742FFF1F012807D8A8233022C2
:10C2200013FB00230348184400F0BDBB4FF0FF3060
:10C23000704700BF742FFF1F012807D8A8233022A2
:10C2400013FB00230348184400F0B3BB4FF0FF304A
:10C25000704700BF742FFF1F012807D8A823302282
:10C2600013FB00230348184400F0A1BB4FF0FF303C
:10C27000704700BF742FFF1F012807D8A823302262
:10C2800013FB00230348184400F095BB4FF0FF3028
:10C29000704700BF742FFF1F012807D8A823302242
:10C2A00013FB00230348184400F07BBB4FF0FF3022
:10C2B000704700BF742FFF1F01289FBF044BA822A7
:10C2C00002FB0030406888BF4FF0FF30704700BF6E
:10C2D000742FFF1F01289FBF044BA82202FB0030D0
:10C2E00090F8280088BFFF20704700BF742FFF1F01
:10C2F00001289FBF044BA82202FB0030C06A88BF00
:10C300004FF0FF30704700BF742FFF1F01280BD87C
:10C31000074BA82202FB003090F828300548002B7C
:10C3200018BF6FF0004070474FF0FF30704700BFFC
:10C33000742FFF1FFFFFFE7F2DE9F047324C334E75
:10C34000266100254FF4003704F130084FF0060A4B
:10C35000256284F801A0656084F82850E762C4E98A
:10C360000655C4E902664046DFF8AC9000F0EEFAEC
:10C370003946404600F000FB4946404600F006FBC7
:10C38000C4F8C85084F8A9A0C4F8B860C4F8AC5088
:10C3900084F8D050C4F8D470C4E93055C4E92C6690
:10C3A000D834204600F0D2FA3946204600F0E4FAAC
:10C3B0004946204600F0EAFA41F23C0214498B5803
:10C3C00043F000738B50134B5A6D42F004025A65D0
:10C3D0001A6842F008021A605A6D42F061025A650A
:10C3E0004FF69162DA64D3F88420C3F88420DA68C7
:10C3F00042F02802DA601A6842F040021A603F20D8
:10C40000BDE8F04700F098BF742FFF1F4826FF1FBC
:10C410000070044000900340A0860100054A41F2EC
:10C420003C03D15841F00071D150D15821F0007136
:10C43000D1507047007004402DE9F04102230124DF
:10C440000025C3FB004504FB05F30E46A4FB0401D5
:10C4500001EB4301C40844EA4174CD1000273B4678
:10C460002046294603F03AF9324680463B462046AC
:10C47000294603F033F9A8EB0000BDE8F08101285C
:10C480002DE9F8430546884635D8A8263027214CA3
:10C4900016FB00772744384600F094FA28B9414645
:10C4A0003846BDE8F84300F071BAB8F1000F22D069
:10C4B0004146384600F06AFA06FB0546384600F069
:10C4C0007AFA73788146C3B90123C6F820803375A0
:10C4D000337D022BFCD1A82303FB05444246494689
:10C4E000A069FFF7A9FF637883B90323606223750E
:10C4F000237D002BFCD1BDE8F8834146384600F08F
:10C5000045FA384600F055FAB061E4E7236E03447B
:10C510002366F0E7742FFF1F904203DC8842024637
:10C52000B8BF0A461046704730B504460D46DDE9EF
:10C530000301A04271EB050C07DB9442204675EB2A
:10C5400003042946BCBF1046194630BDB0F5803FF4
:10C550004BDBB0F1807F2EDBB0F1805F1FDBB0F1F1
:10C56000804F17DB354B984261DC0316344AD25CAE
:10C570001202531C90FBF2F21A445210531C90FB0F
:10C58000F2F213445B1003FB03F2824200DD013B35
:10C590001846704783152A4AD25CD201E9E7B0F108
:10C5A000806F274BABBF021582149A5C9A5CACBFBC
:10C5B00092015201DDE7B0F5801F214B0ADBB0F597
:10C5C000800FABBF021482139A5C9A5CACBF12015D
:10C5D000D200D3E7B0F5802FABBF021382129A5C72
:10C5E0009A5CACBF92005200C8E7FF2819DDB0F595
:10C5F000805F134B0ADBB0F5804FB5BF821102128A
:10C600009B5C9B5CB8BF5B080133BCE7B0F5806FF7
:10C61000ABBF021182109B5C9B5CACBF9B08DB082C
:10C62000F2E7002806DB064B1B5C1B09B0E74FF660
:10C63000FF73ADE74FF0FF33AAE700BF0080FE7F36
:10C640005CFE00004308400003F0553300F0AA30C0
:10C6500018438308800000F0CC3003F033330343E9
:10C6600018091B0103F0F03300F00F301843704736
:10C67000012A2DE9F8434FD8284DDFF8A8904FF450
:10C6800081735343EA18043340F4807482F8000144
:10C6900082F80111EA18224D260227044FEA0468A5
:10C6A000484609B1FFF7CEFF4FF0080E4FEA400CA5
:10C6B0001CF4807318BF234683EA0C0C1CF48033EF
:10C6C00018BF334683EA0C0313F0807C18BFBC46C6
:10C6D0000028B4BF404600208CEA0303BEF1010EDF
:10C6E00080EA0300E2D109B1FFF7ACFF030A09F1C8
:10C6F000043902F8040C02F8033CA9454FEA104340
:10C700004FEA106002F8023C02F8010C02F1040248
:10C71000C6D10120BDE8F8830020FBE77426FF1F87
:10C720000002030400010203012A70B528D84FF467
:10C730008174144D54430144002388421AD14FF4AC
:10C74000817101FB025292F801218AB15A0802F06C
:10C7500055005A0002F0AA020243900800F0330389
:10C76000900000F0CC001843030143EA1010C3B25C
:10C77000184670BD10F8016B73402344EB5CDCE796
:10C780000023F5E77426FF1F01289FBF044B4FF4D9
:10C79000817202FB003090F8000188BF00207047D2
:10C7A0007426FF1F01289FBF044B4FF4817202FBC8
:10C7B000003090F8010188BF002070477426FF1FE9
:10C7C0000023C0E90033C0E90333C0E90533C36186
:10C7D000012380F82030704770B590F82030C5688C
:10C7E000044633B3D0E90413681A0028B8BF4042A6
:10C7F0004FF47A7293FBF2F68642C8BF02FB00F355
:10C80000A0690344A94293FBF2F002FB1032A2613B
:10C8100008DA01442161226820695142FFF77CFE59
:10C82000206170BDF7DD044A93FBF2F30B442361F2
:10C83000F1E70561EFE700BF18FCFFFFF7B590F8DF
:10C84000203045680446002B7CD082684369AD1ACD
:10C8500085EAE572A2EBE57282FB03237826A2FB50
:10C86000060106FB03114FF6FF72002302F036FFAC
:10C870006FF070420023CDE9002300220023FFF770
:10C8800053FEFFF763FE002D4FDD22680021FFF706
:10C8900043FE0546D4E90413681A0028B8BF404295
:10C8A0004FF47A7293FBF2F68642C8BF02FB00F3A4
:10C8B000A0690344A94293FBF2F002FB1032A2618B
:10C8C00039DA0144216185EAE572A2EBE572514251
:10C8D0002069FFF721FE4FF6FF7120613C22002303
:10C8E00080FB010102F0FAFEE369C61841EBE37731
:10C8F00086EAE675A3684FF47A72A5EBE6753046D2
:10C900003946002EC2FB0301B5FBF2F302FB1353C1
:10C9100077F10002B8BF5B42E3614FF47A72002303
:10C9200002F0DCFEA06003B0F0BDB3D021680022AD
:10C9300049424042ABE7C1BF034A93FBF2F35B18A5
:10C940002361C0E78560EEE718FCFFFF0023C0E924
:10C950000033C0E90333836043610122C0E9073338
:10C9600080F82430836280F82C3005230276C0E9F9
:10C970000D33704701767047016070474160704722
:10C9800081607047C16070470161704741617047C5
:10C9900080F8241070474163704781637047007EC0
:10C9A0007047006870474068704780687047C0688B
:10C9B00070470069704740697047806A704790F817
:10C9C0002C00704790F824007047406B7047806BD4
:10C9D000704700238362704730B5047ED0E903239B
:10C9E000002C37D0C469456905FB01456C1493429E
:10C9F000C5F31005C56126DA1C449442D4BF046116
:10CA00000261056A046901FB04514D14002DC1F354
:10CA100010018562016215D0ACBF01254FF0FF35D2
:10CA20009B1A18BF01238168002CB8BF6442002AFA
:10CA30002944B8BF524281609442016BA8BF5B4257
:10CA40000B44036330BDDCDD1C1B9442ACBF0461AE
:10CA50000261D6E70261C461D3E7037E30B5002BE3
:10CA60005BD090F82430012B57D190F82C30012B5B
:10CA70000ED013B1022B27D030BD036903B9036375
:10CA8000D0E901329A42F7D0012380F82C30F3E745
:10CA90000369002BD0E9011208DD8B1A046B013405
:10CAA0009C420BDB0023C3600223EEE701D0531A44
:10CAB000F4E78B1A002BB8BF5B42EFE703689142A3
:10CAC000D8BF5B42C360D7E7D0E90113994202693E
:10CAD00009D1002A836BB8BF52429A42CCD80023B6
:10CAE000C0E90333D1E7002A07D0026BCCBFCB1AD1
:10CAF0005B1A01329A42C7DBBEE7CC1A002C456BA9
:10CB0000B8BF6442AC4205D8826B9942D8BF52424A
:10CB1000C260B1E780F82C20AEE743688360ABE7E2
:10CB200038B50D46FFF758FF2946BDE83840FFF7F6
:10CB300094BF000038B5002201F07F010546FDF7E3
:10CB4000A6FC002211462846FDF7A1FC0022114652
:10CB500004022846FDF79BFC0022114604432846A8
:10CB6000FDF795FC24020443012200212846FDF72D
:10CB70008EFC2402204338BD38B541F080010446C4
:10CB800015460022FDF783FC290E00222046FDF702
:10CB90007EFCC5F3074100222046FDF778FCC5F373
:10CBA000072100222046FDF772FCE9B2204601224F
:10CBB000BDE83840FDF76BBC10B51446FFF7BAFF6F
:10CBC0001CB1012C03D0002010BD80B2FCE7000C8A
:10CBD000FAE7F8B5154606460F461C46FFF7AAFFCA
:10CBE00045B1012D09D0024639463046BDE8F8402E
:10CBF000FFF7C2BF64F30F00F5E764F31F40F2E7ED
:10CC000038B50D4663210446FFF794FF20F0FF007E
:10CC100045EA000263212046BDE83840FFF7ACBF7B
:10CC200070B504460D460121FFF7EAFFABB220467E
:10CC300001226421BDE87040FFF7CBBF70B56F21C2
:10CC40000446FFF777FF002206466F212046FFF7D4
:10CC500093FF6E212046FFF76DFF324605466F2198
:10CC60002046FFF789FF284670BD08B56921FFF708
:10CC700061FF001408BD0020704770B505460E46E0
:10CC800014460121FFF7BCFF2402284694FBF6F36B
:10CC900001229BB26421BDE87040FFF79ABF10B536
:10CCA0000C46FFF7CBFF604348BFFF30001210BDBA
:10CCB00010B50C46FFF7D9FF604348BFFF300012A4
:10CCC00010BD2DE9F0410C466F210546FFF732FFFC
:10CCD000002280466F212846FFF74EFF6E2128462E
:10CCE000FFF728FF012206466F212846FFF744FF81
:10CCF0006E212846FFF71EFF424607466F21284651
:10CD0000FFF73AFFF119614348BFFF310812BDE850
:10CD1000F08110B50C466921FFF70CFF03B203EB5D
:10CD20002040604348BFFF30001210BD0020704714
:10CD30008BB200226421FFF74CBF70B56F2104460F
:10CD4000FFF7F8FE012206466F212046FFF714FF89
:10CD50006E212046FFF7EEFE324605466F21204643
:10CD6000FFF70AFF284670BD08B56921FFF7E2FE0C
:10CD700000B208BD120292FBF1F300229BB26421C3
:10CD8000FFF727BF10B50C46FFF7D7FF604348BF3A
:10CD9000FF30001210BD10B50C46FFF7E5FF6043F1
:10CDA00048BFFF30001210BD120292FBF1F30022C7
:10CDB0009BB25E21FFF70DBF10B50C465E21FFF759
:10CDC000B9FE80B26043001210BD38B504460D466E
:10CDD0000221FFF715FF2A4620466621BDE83840AC
:10CDE000FFF7CABE6621FFF7A5BE6A21FFF7A2BE04
:10CDF0000020704738B504460D460321FFF700FFB9
:10CE00002A4620466821BDE83840FFF7B5BE38B550
:10CE100004460D460321FFF7F3FE6B212046FFF782
:10CE200089FE682142192046BDE83840FFF7A4BEBC
:10CE30006821FFF77FBE0A466B21FFF79DBE6B217D
:10CE4000FFF778BE0020704770B50D46097804469C
:10CE500003295DD8DFE801F002053A5900221A8063
:10CE600070BD2C482C4EFDF760FE52212046FFF786
:10CE700061FE242130802046FFF75CFE1C2170609B
:10CE80002046FFF757FE002330810122292120464A
:10CE9000FFF79FFE0123002252212046FFF799FE53
:10CEA0000023012224212046FFF793FEBDF8103015
:10CEB000002224212046FFF78CFE00231A461C2165
:10CEC0002046FFF786FE02232B70C9E7198801313F
:10CED00089B291421980C3D30F4E002227212046E8
:10CEE000FFF74AFE726824212046FFF745FE33898A
:10CEF00000221C212046FFF76CFE338800225221BD
:10CF00002046FFF766FE0323DEE70448FDF70DFE2B
:10CF10000023D9E7F90101007828FF1F160201005C
:10CF2000401A00B270472DE9F0410D78012D0646F8
:10CF30000F4608D06BB21BB1022D2DD0002329E083
:10CF40001380BDE8F0813321FFF7F4FD332120F495
:10CF500080723046FFF710FE00232A462921304612
:10CF6000FFF737FE39213046FFF7E4FDDFF86C802C
:10CF70000446A8F80A002A213046FFF7DBFDA4EB9F
:10CF8000104083B22A4629213046A8F80C30FFF71A
:10CF900020FE02233B70D4E73921FFF7CBFDDFF8F9
:10CFA0003C80B8F90A4003B2A3420546C9D0A4B2F6
:10CFB0002A213046FFF7BEFD2B1BB8F80C201BB210
:10CFC000144403EBD37304EB6303A3EB10439BB252
:10CFD000012229213046FFF7FCFDAFE77828FF1F2B
:10CFE0002DE9F743104C0B9E1D46236988464345A7
:10CFF00017468146BDF82820BDF8301007D027B964
:10D00000009133462946FFF71FFFC4F81080022F16
:10D0100007D132462946484603B0BDE8F043FFF742
:10D0200082BF03B0BDE8F0837828FF1F30B4BDF89D
:10D030000840BDF810500495029430BCFFF7D0BFF3
:10D0400070B51546044607480E46FDF76EFD2B7871
:10D0500033B91CB9012334702B7001E0022CF9D0D4
:10D0600070BD00BF3802010013B5914214468DF81F
:10D0700007300BD05221FFF77FFD032C06D1049A15
:10D080009DF807000DF10701FFF7DAFF02B010BDB0
:10D0900000221A21FFF770BD08B51B21FFF74AFDDA
:10D0A000C0B208BD38B50D461B210446FFF742FD4E
:10D0B000000C000440EA05021B212046BDE8384070
:10D0C000FFF75ABD08B50921FFF734FD80B208BD4E
:10D0D00038B50D4609210446FFF72CFD000C00046D
:10D0E00040EA050209212046BDE83840FFF744BD6B
:10D0F00008B50821FFF71EFD80B208BD38B50D4602
:10D1000008210446FFF716FD000C000440EA050262
:10D1100008212046BDE83840FFF72EBD38B542EA69
:10D120000144054622465421FFF726FD22462846A3
:10D130005621BDE83840FFF71FBD42EA01425821A1
:10D14000FFF71ABD42EA01425A21FFF715BD2DE94A
:10D15000F0410C461146984605461646FFF7EAFC94
:10D160004246074631462846FFF706FD2146284637
:10D17000FFF7E0FC069B9DF81C40184020FA04F4E1
:10D180003A4628463146FFF7F7FC2046BDE8F081D5
:10D19000174B5A7902F0E0025A711A7902F0F8023C
:10D1A0001A71144A136843F004031360124A136897
:10D1B00023F0784323F001031360104B1A7802F038
:10D1C0008C0242F050021A705A7802F09C0242F02F
:10D1D00040025A709A7802F0E6029A70084A0023D8
:10D1E0001370084A82F8493383F31188704700BFEF
:10D1F00000F007404080044000D0004000D00740CD
:10D2000000E0074000E100E02E4B41F238015A589F
:10D2100042F478525A502C4A927902F00C020C2AAD
:10D220004FD041F244022949995003F558339A7876
:10D23000110748BF9A78264944BF42F008029A7005
:10D24000204B41F24402995041F204015A5842F4F1
:10D25000803242F0C0025A501A6842F440221A60EA
:10D2600003F5E83324225A701A4A80211170A22251
:10D270001A70DA7802F01F02DA7003221A710022A3
:10D280005A719A799207FCD59A79D006FCD40E4B44
:10D2900019469A7902F00C02082AFAD140225A71F2
:10D2A0008B7903F00C03082BFAD1074B1A469979B6
:10D2B0004906FCD522211970937903F00C030C2B3D
:10D2C000FAD170470070044000400640000033016E
:10D2D0000000130100500640684620F007018D460B
:10D2E00001B5BDE8014085467047684620F007015A
:10D2F0008D4601B5FFBEBDE801408546704780F30D
:10D300001188704700BEFEE74FF0E023084AC3F8DB
:10D31000082D084A4CF22053D3814DF62813D381AF
:10D32000138823F001031B041B0C1380704700BFFC
:10D33000008000000020054000280246B8BF00F130
:10D340001F025211012A10B5214B1BD0022A2BD0EB
:10D350008AB9424202F01F02D3F8801100F01F0088
:10D3600058BF5042012202FA00F00143C3F8801175
:10D370001A6810431860164B032283F8582383F869
:10D38000402310BD444204F01F04D3F8841100F080
:10D390001F0058BF604202FA00F00143C3F8841135
:10D3A0005A6810435860E6E7424202F01F02D3F881
:10D3B000881100F01F0058BF5042012202FA00F00D
:10D3C0000143C3F888119A6810439860D3E700BFFF
:10D3D00000E100E0802800F01F024FF001030D493A
:10D3E00003DD9340C1F88C307047402803DD934043
:10D3F000C1F888307047202803DD9340C1F884309D
:10D400007047404200F01F0058BF42429340C1F8AD
:10D410008030704700E100E0202801DC032900DDB6
:10D42000704700280346B8BFC31C4242C3F38703BA
:10D4300002F0030200F0030003F1604358BF5042C2
:10D4400003F564438901C0B2C9B2C00001FA00F01B
:10D450001968084318607047074B1A78D2B2012A3E
:10D4600002D1222903D15A7001225A707047212912
:10D47000FAD10022F7E700BF8C28FF1F70B51546D0
:10D4800011B91B4B197070BD022903D1184B012231
:10D490001A70F8E704291AD1154B5B78012BF2D1E9
:10D4A0009488402C28BF402400235E1CDBB2A3429A
:10D4B00007D300231A4602211846BDE8704000F049
:10D4C00043BF2A68D05C00F0C3F83346EDE7032978
:10D4D00006D1074A5378012BD5D100239370E9E791
:10D4E000052901BF024B00221A705A70CBE700BF1A
:10D4F0008C28FF1F10B50446204600F0C1F8002814
:10D50000FAD110BD704738B50A4C012502460B46CA
:10D5100000202946A57000F0EFFA224618B100233A
:10D52000A370122038BD937803F0FF00002BFAD1CE
:10D53000F8E700BF8C28FF1FF8B506460F4600F03D
:10D54000F4FC0E4B1A78012A16D15B78012B13D10B
:10D5500000F000F988B10025ECB2A74205D82146B9
:10D560003046BDE8F840FFF7CEBF301900F0D6F8DE
:10D5700001350028F0D0F2E70C20F8BD8C28FF1F01
:10D5800008B540210248FFF7D7FF00F095F808BD25
:10D590008F28FF1F38B5054600F0A8F80B28044671
:10D5A00009D140210548FFF7C7FF28B92846BDE843
:10D5B000384000F09BB80024204638BDCF28FF1F1C
:10D5C00070B50C46461E00250CB9284670BD16F8ED
:10D5D000010FFFF7DFFF013C002818BF0B25A4B2A5
:10D5E000F2E738B5451E002415F8010F08B92046AA
:10D5F00038BDFFF7CFFF002818BF0B24F4E707B5AD
:10D600000123002200930649064B104600F01EFA43
:10D61000002814BF1B20002003B05DF804FB00BFEE
:10D620007DD4000059D4000038B50C46054600F002
:10D6300097F8A0420AD32C440020A54200D000B1A4
:10D6400038BD15F8010B00F051F8F6E70B20F7E7AD
:10D6500010B50A4A117840290ED05378D4180133F6
:10D66000DBB2402BA07001F101014FF000001170FE
:10D6700014BF5370507010BD0B20FCE70F29FF1F23
:10D6800010B50C4A117891B192F84230D418013398
:10D69000DBB2A4780470402B01F1FF314FF00000A1
:10D6A000117014BF82F8423082F8420010BD0A2087
:10D6B000FCE700BF0F29FF1F014B1878704700BF20
:10D6C0000F29FF1F024B1878C0F14000C0B270470D
:10D6D0000F29FF1F034B00225A7083F842201A7053
:10D6E000704700BF0F29FF1FFFF7F4BF10B50A4AAC
:10D6F000117840290ED05378D4180133DBB2402B77
:10D70000A07001F101014FF00000117014BF5370BF
:10D71000507010BD0B20FCE75229FF1F10B50C4ABA
:10D72000117891B192F84230D4180133DBB2A47869
:10D730000470402B01F1FF314FF00000117014BF55
:10D7400082F8423082F8420010BD0A20FCE700BF98
:10D750005229FF1F014B1878704700BF5229FF1F45
:10D76000024B1878C0F14000C0B270475229FF1F29
:10D77000034B00225A7083F842201A70704700BF92
:10D780005229FF1FFFF7F4BF70B50446007801F07F
:10D7900083F910F8011B0023DAB291422BD81B4DFC
:10D7A000217A342202FB0352D67811B991780131E3
:10D7B000917034225343EA18907886420CD000F0DE
:10D7C000030204330C2010FB02302918285C0B895B
:10D7D0004A68497800F094FBD5F89C30A3B1227ACE
:10D7E000002A224608BF032112F8080B18BF0521A2
:10D7F000BDE87040184703EB83055A1C465D657809
:10D80000AE42CCD01346C7E770BD00BF9829FF1FBA
:10D810002DE9F04F85B00E4691468DF80F0001F0CE
:10D820003BF9022E074648D10446002514F8018B27
:10D83000EBB2984504F105040FD80025DFF8ACB031
:10D840003C46AA46EBB2984511D8274BD3F89C30FA
:10D85000002B43D105B0BDE8F08F14F8032C14F869
:10D86000051C0DF10F0001F0CDF90135E0E705EBE6
:10D8700085023A44E37892886178CDF804A0A078D4
:10D8800000900DF10F0001F09BF9A378032B05D157
:10D890005A4661789DF80F0001F01AFAE378617832
:10D8A00041EAC31141F010010022C9B20DF10F008D
:10D8B00001F0D8F901350534C4E7002EC5D104784C
:10D8C000094B32463146D0B2844203F13403BCD90D
:10D8D00003F8321C03F8311C0132F4E74A463146A2
:10D8E0009DF80F009847B5E79829FF1F89D70000DA
:10D8F000F0B40C7804F06004202C1E4632D14C7831
:10D90000042C1AD009D8012C0CD05CB1022C1DD0EB
:10D91000032C07D1F0BC00F054B9212C19D005D844
:10D92000202C19D000203080F0BC7047222C16D05B
:10D93000232CF7D1F0BC00F041B902241C801468FC
:10D94000002626701468671C17606670F0BC00F033
:10D9500051B9F0BC00F01AB9F0BC00F01FB9F0BC2E
:10D9600000F06EB9402C06D1044CD4F8A04014B19C
:10D97000A446F0BC6047CD20D6E700BF9829FF1F22
:10D9800073B50446007801F087F863680093A27AC3
:10D99000637A43EA0223ADF8043010F8011B002338
:10D9A000DAB2914228D81A4D217A342202FB03526E
:10D9B000D67811B991780131917034225343EA1825
:10D9C000907886420CD000F0030204330C2010FB48
:10D9D00002302918285C0B894A68497800F090FACF
:10D9E000D5F89C3033B1227A207872B104F1080264
:10D9F0000521984702B070BD03EB83055A1C465DB4
:10DA00006578AE42CFD01346CAE76A460321F0E7F5
:10DA10009829FF1F07B543680093437A817A43EA48
:10DA20000123ADF80430084BD3F89C3002462BB1EB
:10DA3000117A007829B108320521984703B05DF8C2
:10DA400004FB6A460421F8E79829FF1F2DE9F843F3
:10DA5000064688461746994601F01EF802789DF85A
:10DA6000203001320546D2B20021304601F08EF856
:10DA70000446C8B9154A1649304600F082F92846CE
:10DA8000144B10F801CB1D462246E1B28C4500F143
:10DA9000050003F134030AD84946304600F070F817
:10DAA000044608B9C5E927872046BDE8F88310F881
:10DAB000051C03F8341C10F8041C03F8331C03F88D
:10DAC000322C03F8312C0134DFE700BFF1D800001D
:10DAD00011D800009829FF1F08B5064B0022C3E9A2
:10DAE000272200F0A1F918B9BDE8084001F060B89C
:10DAF00008BD00BF9829FF1F2DE9F0410E4698464A
:10DB00000546174600F0C8FF10F804190023DCB2E0
:10DB10008C421A4605D2013303EB8304045DB44200
:10DB2000F5D1164C34235343E218D07892F802C052
:10DB3000A0EB0C01C9B204291BD000F00301013095
:10DB4000C0B24FF00C0E0EFB0133D070A0EB0C00F6
:10DB50001C44C0B2012825716671A760A4F80C802E
:10DB60000AD143463A4631462846BDE8F04100F026
:10DB7000C7B9C120BDE8F0810020FBE79829FF1F4D
:10DB8000014B0020196070473C2AFF1F024B0979A6
:10DB9000197100F085BF00BF3C2AFF1F07B50022A6
:10DBA0001A80054B019101AA0979197100F086FFCD
:10DBB00003B05DF804FB00BF3C2AFF1F0020188063
:10DBC000704730B40C460221198021796488084DD1
:10DBD000012C297102D130BC00F084BF022C02D18B
:10DBE00030BC00F08BBF0020188030BC704700BFF5
:10DBF0003C2AFF1F30B40C46022119802179648829
:10DC0000074D012C297102D130BC00F083BF022CDA
:10DC100002D130BC00F090BF0020188030BC7047AB
:10DC20003C2AFF1F044B054A19795B791171137265
:10DC300003210A23FFF760BF3C2AFF1FE409FF1FEF
:10DC4000F8B500271F808B780B4CA371C3F34003FA
:10DC50005A0063F3000206466271FFF7E3FF25688E
:10DC600045B1A37913F002021ABF3A4622212121BD
:10DC70003046A8470020F8BD3C2AFF1F0246034B50
:10DC800012F8080B1B680521184700BF442AFF1F24
:10DC900070B5094D04462A1D012100F0CBFF8022FA
:10DCA0000121204600F0DEFF2B68207800220A21A7
:10DCB000BDE87040184700BF442AFF1F37B5012157
:10DCC0000DF10702044600F0B5FF9DF80730074D3F
:10DCD000802B04D12A790121204600F0C3FF2B6854
:10DCE000207800220B21984703B030BD442AFF1F43
:10DCF00043681A8852BAD2B2052100F0B3BF73B597
:10DD00000122002405460126002100F07BFF334656
:10DD10002146CDE900461022284600F051FF224658
:10DD20002146284600F06EFF23462146CDE90046F5
:10DD30001022284600F044FF31460222284600F017
:10DD400091FF32460621284600F08CFF22469021A2
